{
  "contractName": "QASTokenSale",
  "abi": [
    {
      "inputs": [
        {
          "internalType": "contract QASToken",
          "name": "_tokenConctract",
          "type": "address"
        },
        {
          "internalType": "uint256",
          "name": "_tokenPrice",
          "type": "uint256"
        }
      ],
      "stateMutability": "nonpayable",
      "type": "constructor"
    },
    {
      "anonymous": false,
      "inputs": [
        {
          "indexed": false,
          "internalType": "address",
          "name": "_buyer",
          "type": "address"
        },
        {
          "indexed": false,
          "internalType": "uint256",
          "name": "_amount",
          "type": "uint256"
        }
      ],
      "name": "Sell",
      "type": "event"
    },
    {
      "inputs": [],
      "name": "tokenContract",
      "outputs": [
        {
          "internalType": "contract QASToken",
          "name": "",
          "type": "address"
        }
      ],
      "stateMutability": "view",
      "type": "function",
      "constant": true
    },
    {
      "inputs": [],
      "name": "tokenPrice",
      "outputs": [
        {
          "internalType": "uint256",
          "name": "",
          "type": "uint256"
        }
      ],
      "stateMutability": "view",
      "type": "function",
      "constant": true
    },
    {
      "inputs": [],
      "name": "tokensSold",
      "outputs": [
        {
          "internalType": "uint256",
          "name": "",
          "type": "uint256"
        }
      ],
      "stateMutability": "view",
      "type": "function",
      "constant": true
    },
    {
      "inputs": [
        {
          "internalType": "uint256",
          "name": "_numberOfTokens",
          "type": "uint256"
        }
      ],
      "name": "buyTokens",
      "outputs": [],
      "stateMutability": "payable",
      "type": "function",
      "payable": true
    },
    {
      "inputs": [],
      "name": "endSale",
      "outputs": [],
      "stateMutability": "nonpayable",
      "type": "function"
    }
  ],
  "bytecode": "0x608060405234801561001057600080fd5b50604051610ab6380380610ab68339818101604052810190610032919061016c565b336000806101000a81548173ffffffffffffffffffffffffffffffffffffffff021916908373ffffffffffffffffffffffffffffffffffffffff16021790555081600160006101000a81548173ffffffffffffffffffffffffffffffffffffffff021916908373ffffffffffffffffffffffffffffffffffffffff1602179055508060028190555050506101ac565b600080fd5b600073ffffffffffffffffffffffffffffffffffffffff82169050919050565b60006100f1826100c6565b9050919050565b6000610103826100e6565b9050919050565b610113816100f8565b811461011e57600080fd5b50565b6000815190506101308161010a565b92915050565b6000819050919050565b61014981610136565b811461015457600080fd5b50565b60008151905061016681610140565b92915050565b60008060408385031215610183576101826100c1565b5b600061019185828601610121565b92505060206101a285828601610157565b9150509250929050565b6108fb806101bb6000396000f3fe60806040526004361061004a5760003560e01c80633610724e1461004f578063380d831b1461006b578063518ab2a81461008257806355a373d6146100ad5780637ff9b596146100d8575b600080fd5b61006960048036038101906100649190610589565b610103565b005b34801561007757600080fd5b506100806102c0565b005b34801561008e57600080fd5b506100976104e5565b6040516100a491906105c5565b60405180910390f35b3480156100b957600080fd5b506100c26104eb565b6040516100cf919061065f565b60405180910390f35b3480156100e457600080fd5b506100ed610511565b6040516100fa91906105c5565b60405180910390f35b61010f81600254610517565b341461011a57600080fd5b80600160009054906101000a900473ffffffffffffffffffffffffffffffffffffffff1673ffffffffffffffffffffffffffffffffffffffff166370a08231306040518263ffffffff1660e01b8152600401610176919061069b565b602060405180830381865afa158015610193573d6000803e3d6000fd5b505050506040513d601f19601f820116820180604052508101906101b791906106cb565b10156101c257600080fd5b600160009054906101000a900473ffffffffffffffffffffffffffffffffffffffff1673ffffffffffffffffffffffffffffffffffffffff1663a9059cbb33836040518363ffffffff1660e01b815260040161021f9291906106f8565b6020604051808303816000875af115801561023e573d6000803e3d6000fd5b505050506040513d601f19601f820116820180604052508101906102629190610759565b61026b57600080fd5b806003600082825461027d91906107b5565b925050819055507f5e5e995ce3133561afceaa51a9a154d5db228cd7525d34df5185582c18d3df0933826040516102b59291906106f8565b60405180910390a150565b60008054906101000a900473ffffffffffffffffffffffffffffffffffffffff1673ffffffffffffffffffffffffffffffffffffffff163373ffffffffffffffffffffffffffffffffffffffff161461031857600080fd5b600160009054906101000a900473ffffffffffffffffffffffffffffffffffffffff1673ffffffffffffffffffffffffffffffffffffffff1663a9059cbb60008054906101000a900473ffffffffffffffffffffffffffffffffffffffff16600160009054906101000a900473ffffffffffffffffffffffffffffffffffffffff1673ffffffffffffffffffffffffffffffffffffffff166370a08231306040518263ffffffff1660e01b81526004016103d2919061069b565b602060405180830381865afa1580156103ef573d6000803e3d6000fd5b505050506040513d601f19601f8201168201806040525081019061041391906106cb565b6040518363ffffffff1660e01b81526004016104309291906106f8565b6020604051808303816000875af115801561044f573d6000803e3d6000fd5b505050506040513d601f19601f820116820180604052508101906104739190610759565b61047c57600080fd5b60008054906101000a900473ffffffffffffffffffffffffffffffffffffffff1673ffffffffffffffffffffffffffffffffffffffff166108fc479081150290604051600060405180830381858888f193505050501580156104e2573d6000803e3d6000fd5b50565b60035481565b600160009054906101000a900473ffffffffffffffffffffffffffffffffffffffff1681565b60025481565b60008082148061053f575082828385610530919061080b565b92508261053d9190610894565b145b61054857600080fd5b92915050565b600080fd5b6000819050919050565b61056681610553565b811461057157600080fd5b50565b6000813590506105838161055d565b92915050565b60006020828403121561059f5761059e61054e565b5b60006105ad84828501610574565b91505092915050565b6105bf81610553565b82525050565b60006020820190506105da60008301846105b6565b92915050565b600073ffffffffffffffffffffffffffffffffffffffff82169050919050565b6000819050919050565b600061062561062061061b846105e0565b610600565b6105e0565b9050919050565b60006106378261060a565b9050919050565b60006106498261062c565b9050919050565b6106598161063e565b82525050565b60006020820190506106746000830184610650565b92915050565b6000610685826105e0565b9050919050565b6106958161067a565b82525050565b60006020820190506106b0600083018461068c565b92915050565b6000815190506106c58161055d565b92915050565b6000602082840312156106e1576106e061054e565b5b60006106ef848285016106b6565b91505092915050565b600060408201905061070d600083018561068c565b61071a60208301846105b6565b9392505050565b60008115159050919050565b61073681610721565b811461074157600080fd5b50565b6000815190506107538161072d565b92915050565b60006020828403121561076f5761076e61054e565b5b600061077d84828501610744565b91505092915050565b7f4e487b7100000000000000000000000000000000000000000000000000000000600052601160045260246000fd5b60006107c082610553565b91506107cb83610553565b9250827fffffffffffffffffffffffffffffffffffffffffffffffffffffffffffffffff03821115610800576107ff610786565b5b828201905092915050565b600061081682610553565b915061082183610553565b9250817fffffffffffffffffffffffffffffffffffffffffffffffffffffffffffffffff048311821515161561085a57610859610786565b5b828202905092915050565b7f4e487b7100000000000000000000000000000000000000000000000000000000600052601260045260246000fd5b600061089f82610553565b91506108aa83610553565b9250826108ba576108b9610865565b5b82820490509291505056fea26469706673582212208827837ea76ab83d5d53f010fbcdcd511cb1a3c5cc576e4802440779c54a013b64736f6c634300080b0033",
  "immutableReferences": {},
  "source": "// SPDX-License-Identifier: MIT\r\npragma solidity ^0.8.11;\r\n\r\nimport \"./QASToken.sol\";\r\n\r\ncontract QASTokenSale {\r\n\taddress admin; // admin is not public since we do not want to expose the address of the admin\r\n\tQASToken public tokenContract;\r\n\tuint256 public tokenPrice;\r\n\tuint256 public tokensSold;\r\n\tevent Sell(address _buyer, uint256 _amount);\r\n\r\n\tconstructor (QASToken _tokenConctract, uint256 _tokenPrice) public {\r\n\t\t// Assign an admin\r\n\t\tadmin = msg.sender;\r\n\t\t// Token Contract - we want actually purchase the token\r\n\t\ttokenContract = _tokenConctract;\r\n\t\t// Token Price\r\n\t\ttokenPrice = _tokenPrice;\r\n\t}\r\n\r\n\t// safe multiply ==> from dapphub/ds-math\r\n\tfunction multiply(uint x, uint y) internal pure returns (uint z) {\r\n\t\trequire(y == 0 || (z = x * y) / y == x);\r\n\t}\r\n\r\n\t// Buy Tokens\r\n\tfunction buyTokens(uint256 _numberOfTokens) public payable {\r\n\t\t\r\n\t\t// Require that value is equal to tokens\r\n\t\trequire(msg.value == multiply(_numberOfTokens, tokenPrice)); // msg.value is the amount of wei we are sending\r\n\t\t// Require that the contract has enough tokens\r\n\t\trequire(tokenContract.balanceOf(address(this)) >= _numberOfTokens); // use address(this) not this here\r\n\t\t// Require that a transfer is successful\r\n\t\trequire(tokenContract.transfer(msg.sender, _numberOfTokens));\r\n\r\n\t\t// Keep track of tokensSold\r\n\t\ttokensSold += _numberOfTokens;\r\n\t\t// Trigger Sell Event\r\n\t\temit Sell(msg.sender, _numberOfTokens);\r\n\t}\r\n\r\n\t// Ending Token Sale\r\n\tfunction endSale() public {\r\n\t\t// Require admin\r\n\t\trequire(msg.sender == admin);\r\n\t\t// Transfer remaining QAS token to admin\r\n\t\trequire(tokenContract.transfer(admin, tokenContract.balanceOf(address(this))));\r\n\t\t// transfer the balance to the admin\r\n\t\tpayable(admin).transfer(address(this).balance);\r\n\t}\r\n\r\n}",
  "sourcePath": "C:\\Users\\UH531JU\\OneDrive - EY\\Desktop\\QAS_token\\contracts\\QASTokenSale.sol",
  "compiler": {
    "name": "solc",
    "version": "0.8.11+commit.d7f03943.Emscripten.clang"
  },
  "schemaVersion": "3.4.4",
  "updatedAt": "2022-06-07T17:04:01.809Z",
  "networkType": "ethereum",
  "devdoc": {
    "kind": "dev",
    "methods": {},
    "version": 1
  },
  "userdoc": {
    "kind": "user",
    "methods": {},
    "version": 1
  }
}